:100000000C943A010C9459010C9459010C94590127
:100010000C9459010C946D0B0C946D0B0C94270AE5
:100020000C9459010C9459010C9459010C945901E8
:100030000C9459010C9459010C9459010C945901D8
:100040000C9459010C94B4080C9459010C94590166
:100050000C9459010C9459010C9459010C945901B8
:100060000C9459010C9459010C9459010C945901A8
:100070000C9459010C9459010C9459010C94590198
:100080000C9454080C9459010C9459010C94590186
:100090000C9459010C945901000000000000005F0D
:1000A00000000003000300143E143E14242A7F2A9B
:1000B000124333086661364955225000050300009B
:1000C000001C2241000041221C0014083E081408B4
:1000D000083E0808005030000008080808080060C2
:1000E00060000020100804023E5149453E00040211
:1000F0007F00426151494622414949361814127F16
:100100001027454545393E494949320101710907E2
:100110003649494936264949493E003636000000ED
:10012000563600000814224100141414141400411F
:1001300022140802015109063E4159555E7E090903
:10014000097E7F494949363E414141227F41414133
:100150003E7F494949417F090909013E4141493AE8
:100160007F0808087F00417F4100304040403F7FCA
:10017000081422417F404040407F020C027F7F02F2
:1001800004087F3E4141413E7F090909061E2121A5
:10019000215E7F09090976264949493201017F011B
:1001A000013F4040403F1F2040201F7F2010207F04
:1001B00041221C224107087008076151494543004C
:1001C0007F41000002040810200000417F0004026B
:1001D0000102044040404040000102040020545409
:1001E00054787F4444443838444444443844444474
:1001F0007F385454541804047E0505085454543C64
:100200007F0804047800447D40002040443D007F86
:100210001028440000417F40007C047804787C086A
:1002200004047838444444387C1414140808141422
:10023000147C007C080404485454542004043F44B3
:10024000443C4040207C1C2040201C3C4030403C32
:1002500044281028440C5050503C4464544C4400F2
:100260000836414100007F0000414136080002018C
:100270000204020011241FBECFEFD0E2DEBFCDBFCB
:1002800013E0A0E0B1E0ECE2F8E200E00BBF02C056
:1002900007900D92A43DB107D9F714E0A4EDB3E0A7
:1002A00001C01D92A731B107E1F70E941E080C940E
:1002B00014140C94000093E89093B00091E0909394
:1002C000B1008093B30008959C019093DC03809368
:1002D000DB0386E390E0809300402115310589F42B
:1002E00080EF90E09093D8038093D70380E491E06F
:1002F0009093DA038093D90388E490E080930041DF
:100300003BC02130310589F480E491E09093D8031B
:100310008093D70380EF90E09093DA038093D90322
:1003200088EE90E08093004127C02230310589F4A7
:1003300080EF90E09093D8038093D70380E491E01E
:100340009093DA038093D90388E890E0809300418A
:1003500013C02330310581F480E491E09093D803F9
:100360008093D70380EF90E09093DA038093D903D2
:1003700088E290E0809300418AE290E08093004020
:1003800020E030E030930041209300418091D7037A
:100390009091D803019790930041809300418BE2A4
:1003A00090E0809300403093004120930041809181
:1003B000D9039091DA030197909300418093004113
:1003C00008951F93682F873718F010E066E711C073
:1003D000883010F468E00CC08D3310F010E009C0D4
:1003E0008F3110F011E005C0803110F012E001C033
:1003F00013E081EB90E0809300401093004170E0A7
:10040000882777FD8095982F0E944B0E9B01AC01A9
:1004100060E070E080EF94E40E946F0D0E94990B01
:1004200070E002C0759567951A95E2F760930041F8
:100430001F9108950F931F93DF93CF93CDB7DEB72E
:1004400028970FB6F894DEBF0FBECDBF29833A833D
:100450004B835C836D837E838F83988769817A81E8
:100460002B813C81ED81FE814F8158858AE290E0AD
:1004700080930040709300416093004130930041AD
:10048000209300418BE290E080930040F093004184
:10049000E093004150930041409300418CE290E092
:1004A000809300402F5F3F4F261B370B4F5F5F4FFE
:1004B0004E1B5F0B24173507C8F4842F877090E01C
:1004C000829FB001839F700D929F700D1124F3E005
:1004D00056954795FA95E1F7842F90E0829FF001B9
:1004E000839FF00D929FF00D112418C0822F87700A
:1004F00090E0849FB001859F700D949F700D112432
:10050000E3E036952795EA95E1F7822F90E0849F06
:10051000F001859FF00D949FF00D1124862F8770B8
:1005200005C0109300410093004181508823C9F712
:10053000CB0123E0969587952A95E1F78E0F9F1FB3
:1005400021C010930041009300411093004100939B
:10055000004110930041009300411093004100932B
:10056000004110930041009300411093004100931B
:10057000004110930041009300411093004100930B
:10058000004101970097E9F628960FB6F894DEBF70
:100590000FBECDBFCF91DF911F910F910895EF92C4
:1005A000FF920F931F93DF93CF93CDB7DEB72897BA
:1005B0000FB6F894DEBF0FBECDBF29833A834B83BD
:1005C0005C836D837E838F83988729813A81AB8199
:1005D000BC81ED80FE806F8178858AE290E0809317
:1005E00000403093004120930041B0930041A0931C
:1005F00000418BE290E080930040F0920041E09255
:10060000004170930041609300418CE290E0809340
:1006100000400FC0F801819191918F0190930041AA
:10062000809300414F5F5F4F6417750798F72F5F06
:100630003F4FA217B30710F0A701F6CF28960FB6C9
:10064000F894DEBF0FBECDBFCF91DF911F910F9108
:10065000FF90EF9008950F931F93DF93CF93CDB743
:10066000DEB728970FB6F894DEBF0FBECDBF10924D
:10067000DE031092DD031092E0031092DF0320915D
:10068000D7033091D803215030408091D903909105
:10069000DA0301971A821982422F3C832B831E8230
:1006A0001D8298878F830091E3031091E4032981D1
:1006B0003A815C816D817E8198850E941A0228961C
:1006C0000FB6F894DEBF0FBECDBFCF91DF911F9163
:1006D0000F91089586E08093750080E88093740000
:1006E0003F9A249A80ED97E00197F1F7479880E4CC
:1006F0009CE90197F1F7479A80EB94E028EC30E011
:10070000F9013197F1F70197D9F788E290E08093EA
:10071000004081E190E08093004088E592E028EC81
:1007200030E0F9013197F1F70197D9F741E050E056
:100730008BEC90E0809300404093004180EC90E08F
:100740008093004088E096E29093004180930041BE
:1007500020E130E081EC90E0809300402093004164
:1007600085EC90E0809300408EE395E39093004108
:100770008093004125EB30E087EC90E080930040CF
:100780002093004186EF90E0809300404093004129
:1007900080E090E0909300418093004125E530E0B7
:1007A0008AE390E0809300402093004180E090E055
:1007B0000E9464010E942B031092DE031092DD035D
:1007C0001092E0031092DF031092E4031092E3030F
:1007D0008FEF9FEF9093E2038093E10389E290E033
:1007E0008093004084EF91E028EC30E0F9013197EC
:1007F000F1F70197D9F780E090E025E330E020930E
:1008000000408093004180916A00806280936A007A
:100810002C9A0895CF92DF92EF92FF920F931F933D
:10082000CF93DF93982F2091DD033091DE03890170
:100830000C5F1F4FA091DF03B091E00380528F3512
:1008400008F083C0ED01279685E09802F00111249D
:10085000E850F0408BE290E080930040B09300417C
:10086000A0930041D0930041C09300419AE2C92E69
:10087000D12C8CE2E82EF12C29C0C092004030939C
:100880000041209300413093004120930041E092C9
:1008900000407491AD0161E013C0862F872329F0D9
:1008A0008091E1039091E20304C08091E303909171
:1008B000E40390930041809300414F5F5F4F660FC8
:1008C000C417D50750F731962F5F3F4F0217130714
:1008D000A0F68AE290E0809300403093004120939C
:1008E000004130930041209300418CE290E08093DE
:1008F00000409D010AC08091E3039091E40390932E
:100900000041809300412F5F3F4FC217D30798F7F4
:100910008091DD039091DE0306969093DE03809331
:10092000DD032091D7033091D8038217930768F035
:100930001092DE031092DD038091DF039091E003BB
:1009400008969093E0038093DF03DF91CF911F918E
:100950000F91FF90EF90DF90CF9008951F93CF936A
:10096000DF93EC0110E003C00E940A041F5FFE0148
:10097000E10FF11D80818823B9F7DF91CF911F919D
:1009800008951F93CF93DF93EC017093DE03609380
:10099000DD035093E0034093DF0310E003C00E94A7
:1009A0000A041F5FFE01E10FF11D80818823B9F762
:1009B000DF91CF911F910895279A2F9808952F9A2C
:1009C000089514BC15BC2F98089593E894BD91E048
:1009D00095BD87BD0895CF93DF930E942B0380E0E0
:1009E00091E068E570E046E450E00E94C1048AE0CE
:1009F00091E06FE370E04FE550E00E94C1048DE1AB
:100A000091E061E270E048E750E00E94C10488E3B1
:100A100091E061E470E041E950E00E94C104329944
:100A200002C00E945706679962C0CFEFDFEF0E94B5
:100A30002B03A7E0B4E0E4E9F2E088E001900D9236
:100A40008150E1F7ADEEB3E0E7E0F4E088E001903B
:100A50000D928150E1F7AFEFB3E0ECE9F2E088E00E
:100A600001900D928150E1F7A5EFB3E0EFEFF3E0D5
:100A700088E001900D928150E1F7A5EEB3E0E4EA41
:100A8000F2E088E001900D928150E1F7AFE0B4E030
:100A9000E5EEF3E088E001900D928150E1F71092CD
:100AA000FE031092FD03D0938900C09388000E943A
:100AB000DF0478948091CA028823E1F7F8940E94B9
:100AC000E1048AE491E06AE570E046E950E00E94C2
:100AD000C1042E9A07C01E9B03C00E94DF0402C0FF
:100AE0000E94E1046799F7CF0E942B03A0CF3499AD
:100AF00096CF0E947C0593CFFF920F931F930E9485
:100B00002B0384E591E060E570E046E450E00E944C
:100B1000C1048FE591E067E370E04FE550E00E948B
:100B2000C10484E791E065E370E048E750E00E948B
:100B3000C1048AE891E067E370E041E950E00E9477
:100B4000C1048FE991E06EE370E040EA50E00E945A
:100B5000C1048FEA91E066E470E049EB50E00E9446
:100B6000C10411E082E0F82E03E0349905C08091C1
:100B7000CA028F5F8093CA0232990CC08091CA0268
:100B8000823030F08091CA0281508093CA0202C044
:100B90001093CA02359902C00E94EB046799E5CF11
:100BA0008091AC028150823008F04AC00E942B0331
:100BB00084E591E060E570E046E450E00E94C10405
:100BC0008FE591E067E370E04FE550E00E94C104DB
:100BD00084E791E065E370E048E750E00E94C104DB
:100BE0008AE891E067E370E041E950E00E94C104C7
:100BF0008FEA91E066E470E049EB50E00E94C104A6
:100C00008091AC02823061F40093AC028093AD021B
:100C10008DEB91E06EE370E040EA50E00E94C10489
:100C20008091AC02813009F0A0CFF092AC028093A9
:100C3000AD028DEC91E06EE370E040EA50E034C02C
:100C40001093AC021093AD020E942B0384E591E057
:100C500060E570E046E450E00E94C1048FE591E059
:100C600067E370E04FE550E00E94C10484E791E043
:100C70006EE370E048E750E00E94C1048AE891E02A
:100C800067E370E041E950E00E94C1048FE991E020
:100C90006AE370E040EA50E00E94C1048FEA91E00C
:100CA00066E470E049EB50E00E94C1045ECF0F9310
:100CB0001F93CF93DF930E942B038FED91E06CE3A2
:100CC00070E046E450E00E94C10484EF91E068E3E4
:100CD00070E04FE550E00E94C1048DE092E065E4D1
:100CE00070E04EE650E00E94C1048CE192E064E3C3
:100CF00070E042E850E00E94C1048DE092E065E4BB
:100D000070E041E950E00E94C1048FEA91E066E49E
:100D100070E045EA50E00E94C10400E010E0C0E04D
:100D2000D0E03299C2C00F5F1F4F0C30110511F493
:100D300001E010E0F801EE0FFF1FEE54FD4F80813F
:100D400091819093AF028093AE020E942B038FEDAE
:100D500091E06CE370E046E450E00E94C10484EF4F
:100D600091E06EE270E04FE550E00E94C104023075
:100D7000110540F48DE092E065E470E04EE650E04D
:100D80000E94C104C8010297029740F488E392E0F0
:100D900065E470E04EE650E00E94C104C80104978B
:100DA000029740F488E492E065E470E04EE650E09B
:100DB0000E94C104C8010697029740F489E592E0B9
:100DC00065E470E04EE650E00E94C104C801089757
:100DD000029740F48BE692E065E470E04EE650E066
:100DE0000E94C104C8010A97029740F48EE792E07E
:100DF00065E470E04EE650E00E94C1048CE192E0B0
:100E00006AE270E042E850E00E94C104C230D105BD
:100E100040F48DE092E065E470E041E950E00E942A
:100E2000C104CE010297029740F488E392E065E4A2
:100E300070E041E950E00E94C104CE01049702979E
:100E400040F488E492E065E470E041E950E00E94FB
:100E5000C104CE010697029740F489E592E065E46B
:100E600070E041E950E00E94C104CE01089702976A
:100E700040F48BE692E065E470E041E950E00E94C6
:100E8000C104CE010A97029740F48EE792E065E430
:100E900070E041E950E00E94C1048FEA91E066E40D
:100EA00070E045EA50E00E94C1043499C4C0219624
:100EB000CC30D10511F4C1E0D0E0FE01EE0FFF1FF0
:100EC000EE54FD4F808191819093B1028093B002E6
:100ED0000E942B038FED91E06CE370E046E450E05C
:100EE0000E94C10484EF91E06EE270E04FE550E0B3
:100EF0000E94C1040230110540F48DE092E065E4E7
:100F000070E04EE650E00E94C104C80102970297CB
:100F100040F488E392E065E470E04EE650E00E9421
:100F2000C104C8010497029740F488E492E065E4A4
:100F300070E04EE650E00E94C104C8010697029797
:100F400040F489E592E065E470E04EE650E00E94EE
:100F5000C104C8010897029740F48BE692E065E46B
:100F600070E04EE650E00E94C104C8010A97029763
:100F700040F48EE792E065E470E04EE650E00E94B7
:100F8000C1048CE192E06AE270E042E850E00E9425
:100F9000C104C230D10540F48DE092E065E470E018
:100FA00041E950E00E94C104CE010297029740F44B
:100FB00088E392E065E470E041E950E00E94C104FA
:100FC000CE010497029740F488E492E065E470E073
:100FD00041E950E00E94C104CE010697029740F417
:100FE00089E592E065E470E041E950E00E94C104C7
:100FF000CE010897029740F48BE692E065E470E03A
:1010000041E950E00E94C104CE010A97029740F4E2
:101010008EE792E065E470E041E950E00E94C1048F
:101020008FEA91E066E470E045EA50E00E94C10476
:1010300002C00E94EB04359974CEFBCFE1E6F0E0EC
:1010400080E8808310820E942E0B0E94DC040E94A4
:101050006A038DE30E94E101EE9A8DB380638DBB3C
:1010600010928000E1E8F0E098E090838081816058
:101070008083EFE6F0E080818260808310929000B0
:10108000E1E9F0E09083808184608083E1E7F0E033
:1010900080818260808382E19AE7909399008093B7
:1010A00098000E94EB0408951F920F920FB60F92C2
:1010B0000BB60F9211240F931F932F933F934F93CF
:1010C0005F936F937F938F939F93AF93BF93EF93B0
:1010D000FF93DF93CF9300D000D0CDB7DEB7209140
:1010E000D40300D000D000D0EDB7FEB731968E010A
:1010F0000F5F1F4FADB7BEB712961C930E9311979B
:101100008FE892E093838283248315820E943D11AD
:101110008DB79EB706960FB6F8949EBF0FBE8DBFD3
:10112000C80168E270E044E150E00E94C1041092FE
:10113000D4030F900F900F900F90CF91DF91FF91FC
:10114000EF91BF91AF919F918F917F916F915F913F
:101150004F913F912F911F910F910F900BBE0F90C8
:101160000FBE0F901F9018951F920F920FB60F92FF
:101170000BB60F9211242F933F934F935F936F936E
:101180007F938F939F93AF93BF93CF93DF93EF930F
:10119000FF938091FF03909100047091AC02472F60
:1011A000552747FD5095840F951F90930004809319
:1011B000FF038091010490910204840F951F909386
:1011C00002048093010480910304909104046091CF
:1011D000AD02262F332727FD3095820F931F909362
:1011E0000404809303048091050490910604280F61
:1011F000391F30930604209305048091E5039091F4
:10120000E603840F951F9093E6038093E503809196
:10121000E7039091E803480F591F5093E803409368
:10122000E7032091010430910204E091D703F0918B
:10123000D803CF0101972817390730F48091FF03B5
:1012400090910004892B19F471957093AC028091F0
:10125000030490910404892B19F461956093AD0205
:101260002091050430910604C091D903D091DA038E
:10127000CE01019728173907C1F52091FF0330915E
:1012800000048091090490910A048217930768F181
:101290002091010430910204809107049091080488
:1012A0002817390710F18091AD0281958093AD0226
:1012B0008091FD039091FE0301969093FE0380932D
:1012C000FD038091FD039091FE036AE070E00E94AF
:1012D000F210892B51F480918800909189009695A5
:1012E000879590938900809388008091D50387FF2C
:1012F00018C080910704909108040A9790F080919B
:101300000704909108040A979093080480930704B7
:101310008091090490910A040A9790930A0480939B
:1013200009048091D5031816DCF42091090430914A
:101330000A04CF010A972817390790F4809107040F
:10134000909108040A969093080480930704809172
:10135000090490910A040A9690930A048093090460
:10136000329918C08091070490910804059790F075
:101370008091070490910804059790930804809346
:1013800007048091090490910A04059790930A0438
:101390008093090434991AC08091090490910A0439
:1013A00035978E179F0790F4809107049091080459
:1013B0000596909308048093070480910904909106
:1013C0000A04059690930A04809309041092D503A9
:1013D0008091050490910604C817D90718F58091EB
:1013E000CA0281508093CA022091CA02220F83E070
:1013F00090E002C0880F991F2A95E2F70E94E50449
:10140000AFEFB3E0ECE9F2E088E001900D9281509B
:10141000E1F7A7E0B4E0E4E9F2E088E001900D92A2
:101420008150E1F7FF91EF91DF91CF91BF91AF91A3
:101430009F918F917F916F915F914F913F912F91EC
:101440000F900BBE0F900FBE0F901F9018951F921C
:101450000F920FB60F920BB60F9211240F931F939A
:101460002F933F934F935F936F937F938F939F93AC
:10147000AF93BF93EF93FF93DF93CF9300D000D050
:10148000CDB7DEB70091E3031091E4032091F5039B
:101490003091F6034091F7035091F8036091F903FE
:1014A0007091FA038091FB039091FC030E941A0251
:1014B000E091AE02F091AF022091FF033091000461
:1014C000409101045091020460910304709104045E
:1014D00080910504909106048F010E941A020091E8
:1014E000E3031091E4032091ED033091EE0340916A
:1014F000EF035091F0036091F1037091F20380913A
:10150000F3039091F4030E941A02E091B002F0916B
:10151000B1022091070430910804409109045091D0
:101520000A0460910B0470910C0480910D04909159
:101530000E048F010E941A020091E3031091E4034C
:1015400020910F0430911004409111045091120425
:101550006091130470911404809115049091160405
:101560000E941A02E091B002F091B1022091E503CD
:101570003091E6034091E7035091E8036091E9035D
:101580007091EA038091EB039091EC038F010E942C
:101590001A02A5EFB3E0EFEFF3E088E001900D92BF
:1015A0008150E1F7ADEEB3E0E7E0F4E088E00190D0
:1015B0000D928150E1F7AFE0B4E0E5EEF3E088E0B2
:1015C00001900D928150E1F72091FD033091FE03CF
:1015D00000D000D000D0EDB7FEB731968E010F5F7E
:1015E0001F4FADB7BEB712961C930E9311978FE89D
:1015F00092E093838283358324830E943D118DB7CB
:101600009EB706960FB6F8949EBF0FBE8DBFC80159
:1016100068EC70E044E150E00E94C1048091D40382
:101620008F5F8093D4030F900F900F900F90CF9106
:10163000DF91FF91EF91BF91AF919F918F917F913A
:101640006F915F914F913F912F911F910F910F904B
:101650000BBE0F900FBE0F901F9018958DB18F7419
:101660008DB98EB1806B8EB987B1837C87B988B113
:101670008C6388B9EAE6F0E080818568808308950C
:101680009CB1907329F48091D6038032A9F406C0EE
:101690009033D9F48091D603803139F48091D50309
:1016A00081508093D503903329F48091D603803202
:1016B00061F406C0992349F48091D603803129F45E
:1016C0008091D5038F5F8093D5039093D60380914B
:1016D000D503089586B18C7308951F920F920FB6AB
:1016E0000F920BB60F9211242F933F934F935F935A
:1016F0006F937F938F939F93AF93BF93EF93FF93DA
:101700000E94400B88EC90E00197F1F7FF91EF9178
:10171000BF91AF919F918F917F916F915F914F9109
:101720003F912F910F900BBE0F900FBE0F901F9007
:101730001895EF92FF920F931F937B018C0120E08D
:1017400030E040E05FE40E941B0E88238CF0C8016B
:10175000B70120E030E040E05FE40E94110D0E94FC
:10176000A90E9B01AC01205030404040504806C0BB
:10177000C801B7010E94A90E9B01AC01B901CA01C1
:101780001F910F91FF90EF900895A0E0B0E0EBEC77
:10179000FBE00C940611DC012B01FA019C919230C4
:1017A00008F439C1EB018881823008F433C19430E8
:1017B00069F4843009F02FC111969C9111978981A9
:1017C000981709F428C1ABECB2E025C1843009F4C4
:1017D00021C18230A9F4923009F01DC19A01AD01F6
:1017E00088E0EA010990AE01E90109929E01815069
:1017F000C1F7E201898111969C918923818308C1F7
:10180000923009F407C112962D903C901397EB018A
:101810008A819B811496AD90BD90CD90DC901797F6
:10182000EC80FD800E811F819101281B390BB901CD
:1018300037FF04C066277727621B730B6032710580
:101840000CF061C0121613066CF537014801062E24
:1018500004C096948794779467940A94D2F721E011
:1018600030E040E050E004C0220F331F441F551FFA
:101870006A95D2F721503040404050402E213F2100
:1018800040235123211531054105510521F021E067
:1018900030E040E050E079018A01E628F728082985
:1018A00019293CC0232BD1F1260E371E35014601E4
:1018B000062E04C096948794779467940A94D2F77E
:1018C00021E030E040E050E004C0220F331F441F0D
:1018D000551F6A95D2F721503040404050402A2190
:1018E0003B214C215D21211531054105510521F098
:1018F00021E030E040E050E059016A01A628B72815
:10190000C828D9280BC0821593052CF01C01AA24E5
:10191000BB24650103C0EE24FF24870111969C912E
:10192000D20111968C91981709F445C0992339F08A
:10193000A80197012A193B094C095D0906C0A601B7
:1019400095012E193F09400B510B57FD08C011821C
:101950003382228224833583468357831DC081E0EE
:1019600081833382228288279927DC01821B930B93
:10197000A40BB50B84839583A683B7830DC0220F78
:10198000331F441F551F2483358346835783828129
:101990009381019793838283248135814681578186
:1019A000DA01C9010197A109B1098F5F9F4FAF4FBC
:1019B000BF4328F30BC0918333822282EA0CFB1CC5
:1019C0000C1D1D1DE482F5820683178383E080834E
:1019D000248135814681578157FF1AC0C901AA2742
:1019E00097FDA095BA2F81709070A070B070569539
:1019F000479537952795822B932BA42BB52B848362
:101A00009583A683B7838281938101969383828392
:101A1000DF0101C0D201CD01CDB7DEB7E2E10C9408
:101A20002211A0E2B0E0E7E1FDE00C94121169831D
:101A30007A838B839C832D833E834F835887E9E091
:101A4000EE2EF12CEC0EFD1ECE010196B7010E9488
:101A500021108E010F5E1F4FCE010596B8010E9426
:101A600021108A8991E089278A8BC701B801AE01CC
:101A7000475E5F4F0E94C50B0E944C0FA096E6E0A8
:101A80000C942E11A0E2B0E0E8E4FDE00C941211F9
:101A900069837A838B839C832D833E834F8358870E
:101AA000F9E0EF2EF12CEC0EFD1ECE010196B701F0
:101AB0000E9421108E010F5E1F4FCE010596B801C6
:101AC0000E942110C701B801AE01475E5F4F0E941E
:101AD000C50B0E944C0FA096E6E00C942E11A8E1D5
:101AE000B0E0E5E7FDE00C940E1169837A838B8307
:101AF0009C832D833E834F835887B9E0EB2EF12CD6
:101B0000EC0EFD1ECE010196B7010E9421108E0140
:101B10000F5E1F4FCE010596B8010E942110298546
:101B2000223008F47EC03989323010F4B8017CC00C
:101B30008A859A8989278A87243011F0223031F4E6
:101B4000231709F06EC06BEC72E06EC0343039F4CC
:101B50001D861E861F86188A1C861B8604C032308E
:101B600021F484E08987B7015FC02B853C858B8990
:101B70009C89281B390B3C872B87ED84FE840F85BD
:101B80001889AD88BE88CF88D88CEA14FB040C0570
:101B90001D0540F4EE0CFF1C001F111F21503040AA
:101BA0003C872B8720E030E040E050E080E090E090
:101BB000A0E0B0E460E070E0EA14FB040C051D0551
:101BC00040F0282B392B4A2B5B2BEA18FB080C0919
:101BD0001D09B695A79597958795EE0CFF1C001FDC
:101BE000111F6F5F7F4F6F31710531F7DA01C90146
:101BF0008F779070A070B07080349105A105B10509
:101C000061F427FD0AC0E114F1040105110529F072
:101C1000205C3F4F4F4F5F4F20782D873E874F8787
:101C2000588BBE01675F7F4FCB010E944C0F6896B7
:101C3000EAE00C942A11A8E1B0E0E1E2FEE00C94A5
:101C4000121169837A838B839C832D833E834F8318
:101C5000588789E0E82EF12CEC0EFD1ECE0101968E
:101C6000B7010E9421108E010F5E1F4FCE01059615
:101C7000B8010E9421108985823040F08989823024
:101C800028F0C701B8010E94991001C08FEF689633
:101C9000E6E00C942E11A8E0B0E0E1E5FEE00C9443
:101CA0000F119B01AC0183E08983DA01C901882708
:101CB000B7FD83959927AA27BB27B82E2115310593
:101CC0004105510519F482E089833AC08823A9F0BF
:101CD000203080E0380780E0480780E8580729F482
:101CE00060E070E080E09FEC30C0EE24FF248701CC
:101CF000E21AF30A040B150B02C079018A018EE186
:101D0000C82ED12CDC82CB82ED82FE820F83188715
:101D1000C801B7010E94FD0E01971816190684F438
:101D2000082E04C0EE0CFF1C001F111F0A94D2F7EE
:101D3000ED82FE820F831887C81AD90ADC82CB8213
:101D4000BA82CE0101960E944C0F2896E9E00C94CD
:101D50002B11ACE0B0E0EFEAFEE00C9416116983C1
:101D60007A838B839C83CE010196BE016B5F7F4F8C
:101D70000E9421108D81823061F1823050F18430D7
:101D800021F48E81882351F12EC02F81388537FDB3
:101D900020C06E812F3131051CF06623F9F023C07D
:101DA0008EE190E0821B930B29853A854B855C85FB
:101DB00004C056954795379527958A95D2F766239F
:101DC000B1F050954095309521953F4F4F4F5F4F63
:101DD0000EC020E030E040E050E009C02FEF3FEFC0
:101DE0004FEF5FE704C020E030E040E050E8B90189
:101DF000CA012C96E2E00C943211EF92FF920F93FD
:101E00001F937B018C0180E0E81680E0F80681E0FA
:101E1000080780E0180788F48FEFE816F104010541
:101E2000110531F028F088E090E0A0E0B0E017C0A4
:101E300080E090E0A0E0B0E012C080E0E81680E032
:101E4000F80680E0080781E0180728F088E190E0B4
:101E5000A0E0B0E004C080E190E0A0E0B0E020E2CB
:101E600030E040E050E0281B390B4A0B5B0B04C00C
:101E700016950795F794E7948A95D2F7F701ED52F6
:101E8000FD4F8081281B310941095109C9011F916A
:101E90000F91FF90EF900895DF92EF92FF920F93D2
:101EA0001F93FC01E480F58006811781D180808139
:101EB000823048F480E090E0A0E1B0E0E82AF92A1E
:101EC0000A2B1B2BA5C0843009F49FC0823021F45B
:101ED000EE24FF24870105C0E114F104010511057A
:101EE00019F4E0E0F0E096C0628173819FEF623800
:101EF00079070CF05BC022E83FEF261B370B2A3135
:101F000031052CF020E030E040E050E02AC0B8017C
:101F1000A701022E04C076956795579547950A94B8
:101F2000D2F781E090E0A0E0B0E004C0880F991FF4
:101F3000AA1FBB1F2A95D2F70197A109B1098E21CB
:101F40009F21A023B1230097A105B10521F081E0D5
:101F500090E0A0E0B0E09A01AB01282B392B4A2B8E
:101F60005B2BDA01C9018F779070A070B07080345C
:101F70009105A105B10539F427FF09C0205C3F4F49
:101F80004F4F5F4F04C0215C3F4F4F4F5F4FE0E02A
:101F9000F0E02030A0E03A07A0E04A07A0E45A07AA
:101FA00010F0E1E0F0E079018A0127C060387105A6
:101FB00064F5FB01E158FF4FD801C7018F7790709E
:101FC000A070B07080349105A105B10539F4E7FE29
:101FD0000DC080E490E0A0E0B0E004C08FE390E0AA
:101FE000A0E0B0E0E80EF91E0A1F1B1F17FF05C096
:101FF00016950795F794E794319687E0169507951F
:10200000F794E7948A95D1F705C0EE24FF24870161
:10201000EFEFF0E06E2F679566276795902F9F771B
:10202000D794DD24D7948E2F8695492F462B582F91
:102030005D29B701CA011F910F91FF90EF90DF90CA
:102040000895FC01DB01408151812281622F6F776D
:1020500070E0221F2227221F9381892F880F822B55
:10206000282F30E0991F9927991F11969C9311975B
:1020700021153105A9F5411551056105710511F4C9
:1020800082E037C082E89FEF13969C938E9312975D
:102090009A01AB0167E0220F331F441F551F6A9559
:1020A000D1F783E08C930DC0220F331F441F551FBF
:1020B00012968D919C911397019713969C938E93F2
:1020C0001297203080E0380780E0480780E4580706
:1020D00058F314962D933D934D935C931797089561
:1020E0002F3F310579F4411551056105710519F44A
:1020F00084E08C93089564FF03C081E08C9312C048
:102100001C9210C02F57304013963C932E93129779
:1021100083E08C9387E0440F551F661F771F8A95D5
:10212000D1F7706414964D935D936D937C931797DC
:1021300008951F93DC01FB019C91923008F447C085
:102140008081823008F443C0943051F411961C9180
:10215000843099F58181682F70E0611B71093FC05F
:10216000843021F0923031F48230B9F181818823BA
:1021700089F12DC011961C9111978230F1F0818167
:102180001817D9F412962D913C911397828193815F
:102190008217930794F028173907BCF014968D9195
:1021A0009D910D90BC91A02D248135814681578150
:1021B000281739074A075B0718F4112341F00AC0B2
:1021C00082179307A407B50740F4112319F061E0C3
:1021D00070E005C06FEF7FEF02C060E070E0CB0100
:1021E0001F910895AA1BBB1B51E107C0AA1FBB1F6B
:1021F000A617B70710F0A61BB70B881F991F5A9593
:10220000A9F780959095BC01CD0108952F923F923A
:102210004F925F926F927F928F929F92AF92BF92F6
:10222000CF92DF92EF92FF920F931F93CF93DF93A2
:10223000CDB7DEB7CA1BDB0B0FB6F894DEBF0FBEFF
:10224000CDBF09942A88398848885F846E847D844C
:102250008C849B84AA84B984C884DF80EE80FD804E
:102260000C811B81AA81B981CE0FD11D0FB6F894C4
:10227000DEBF0FBECDBFED0108950F931F93DF9317
:10228000CF93CDB7DEB72E970FB6F894DEBF0FBE53
:10229000CDBF0D891E8986E08C831A8309838FEF59
:1022A0009FE79E838D839E01275E3F4FCE0101965F
:1022B0006F89788DA9010E946E112F813885020FD8
:1022C000131FF80110822E960FB6F894DEBF0FBED2
:1022D000CDBFCF91DF911F910F9108952F923F9223
:1022E0004F925F926F927F928F929F92AF92BF9226
:1022F000CF92DF92EF92FF920F931F93DF93CF93D2
:10230000CDB7DEB72B970FB6F894DEBF0FBECDBFAB
:102310003C012B015A01FC0117821682838181FD49
:1023200003C06FEF7FEFC6C19AE0892E1E010894AB
:10233000211C311CF3012381F20123FD859123FF30
:1023400081912F01882309F4B2C1853239F423FD2C
:10235000859123FF81912F01853229F490E0B3010B
:102360000E948A13E7CF982FFF24EE249924FFE1DF
:10237000FF15D0F09B3269F09C3228F4903259F06E
:10238000933291F40EC09D3249F0903369F441E0EC
:1023900024C052E0F52A84E0F82A28C098E0F92AFF
:1023A00025C0E0E1FE2A22C0F7FC29C0892F805316
:1023B0008A3070F4F6FE05C0989C902C1124980E7B
:1023C00015C0E89CE02C1124E80EF0E2FF2A0EC0B4
:1023D0009E3229F4F6FC6BC140E4F42A07C09C3617
:1023E00019F450E8F52A02C0983649F4F20123FDA9
:1023F000959123FF91912F01992309F0B8CF892F4F
:102400008554833018F08052833038F444E050E033
:10241000A40EB51E5FE359830FC0933631F0933796
:1024200079F0933509F056C020C0F5018081898389
:1024300042E050E0A40EB51E610101E010E012C0C0
:10244000F501C080D180F6FC03C06FEF7FEF02C0C2
:10245000692D70E042E050E0A40EB51EC6010E9456
:102460007F138C015FE7F52214C0F501C080D18095
:10247000F6FC03C06FEF7FEF02C0692D70E042E011
:1024800050E0A40EB51EC6010E9474138C0150E8E2
:10249000F52AF3FE07C01AC080E290E0B3010E9463
:1024A0008A13EA948E2D90E008171907A8F30EC03E
:1024B000F601F7FC8591F7FE81916F0190E0B30181
:1024C0000E948A13E110EA94015010400115110591
:1024D00079F7EAC0943611F0993669F5F7FE08C02D
:1024E000F501208131814281538184E090E00AC06E
:1024F000F501808191819C01442737FD4095542F3F
:1025000082E090E0A80EB91E9FE6F92257FF09C0AD
:1025100050954095309521953F4F4F4F5F4FE0E8E4
:10252000FE2ACA01B901A1012AE030E00E94B613D7
:10253000D82ED21840C0953729F41F2D1F7E2AE0CF
:1025400030E01DC01F2D197F9F3661F0903720F4B9
:10255000983509F0ACC00FC0903739F0983709F0C2
:10256000A6C004C028E030E00AC0106114FD146069
:1025700020E130E004C014FD166020E132E017FFD6
:1025800008C0F501608171818281938144E050E04F
:1025900008C0F50180819181BC0180E090E042E0BB
:1025A00050E0A40EB51EA1010E94B613D82ED21879
:1025B0008FE7F82EF122F6FE0BC05EEFF522D9145C
:1025C00038F4F4FE07C0F2FC05C08FEEF82202C01A
:1025D0001D2D01C0192DF4FE0DC0FE01ED0DF11DE4
:1025E0008081803319F499EEF92208C01F5FF2FE52
:1025F00005C003C08F2D867809F01F5F0F2DF3FCF7
:1026000014C0F0FE0FC01E1510F09D2C0BC09D2CA9
:102610009E0C911A1E2D06C080E290E0B3010E942C
:102620008A131F5F1E15C0F304C01E1510F4E11AB3
:1026300001C0EE2404FF0FC080E390E0B3010E94CC
:102640008A1302FF1DC001FD03C088E790E00EC0A1
:1026500088E590E00BC0802F867891F001FF02C0E2
:102660008BE201C080E2F7FC8DE290E0B3010E94B2
:102670008A1306C080E390E0B3010E948A139A9403
:10268000D914C0F3DA94F101ED0DF11D808190E0D1
:10269000B3010E948A13DD20A9F706C080E290E012
:1026A000B3010E948A13EA94EE20C1F743CEF301EE
:1026B00066817781CB012B960FB6F894DEBF0FBEF3
:1026C000CDBFCF91DF911F910F91FF90EF90DF90E1
:1026D000CF90BF90AF909F908F907F906F905F90C2
:1026E0004F903F902F900895FC01059061507040ED
:1026F0000110D8F7809590958E0F9F1F0895FC01CB
:102700006150704001900110D8F7809590958E0F20
:102710009F1F08950F931F93CF93DF938C01EB01BD
:102720008B8181FF1BC082FF0DC02E813F818C8178
:102730009D812817390764F4E881F9810193F983B1
:10274000E88306C0E885F985802F0995892B31F447
:102750008E819F8101969F838E8302C00FEF1FEFB2
:10276000C801DF91CF911F910F910895FA01AA2717
:10277000283051F1203181F1E8946F936E7F6E5FC4
:102780007F4F8F4F9F4FAF4FB1E03ED0B4E03CD072
:10279000670F781F891F9A1FA11D680F791F8A1F55
:1027A000911DA11D6A0F711D811D911DA11D20D0BC
:1027B00009F468943F912AE0269F11243019305D76
:1027C0003193DEF6CF010895462F4770405D419367
:1027D000B3E00FD0C9F7F6CF462F4F70405D4A33B4
:1027E00018F0495D31FD4052419302D0A9F7EACF7C
:1027F000B4E0A6959795879577956795BA95C9F7AB
:1028000000976105710508959B01AC010A2E06949D
:102810005795479537952795BA95C9F7620F731F56
:0C282000841F951FA01D0895F894FFCFA1
:10282C004D41494E204D454E550043454E54524561
:10283C003A2053746172742047616D65004C4546B3
:10284C00543A20436F6C6F757220437573746F6DBF
:10285C0069736174696F6E0052494748543A204459
:10286C006966666963756C74790047616D65204FA4
:10287C0076657200444946464943554C5459004CC0
:10288C004546543A204465637265617365204C6912
:10289C007665730052494748543A20496E63726515
:1028AC00617365204C697665730043454E545245FF
:1028BC003A204368616E6765205370656564002833
:1028CC0043555252454E543A204561737929004480
:1028DC004F574E3A20476F204261636B0028435597
:1028EC005252454E543A204861726429002843558F
:1028FC005252454E543A204D656469756D2900431A
:10290C004F4C4F555220435553544F4D49534154FE
:10291C00494F4E004C4546543A204368616E6765FA
:10292C002042616C6C20436F6C6F757200284355AC
:10293C005252454E543A2052454429005249474878
:10294C00543A204368616E676520506164646C651D
:10295C0020436F6C6F7572002843555252454E548C
:10296C003A20424C554529002843555252454E5465
:10297C003A20475245454E29002843555252454E60
:10298C00543A2059454C4C4F572900284355525224
:10299C00454E543A204D4147454E54412900284359
:1029AC00555252454E543A20574849544529002512
:1029BC00303364005F0091003D013F0176007A00E6
:1029CC00000003005F00910000000300010100F80B
:1029DC0000F800F800F81F001F00E007E007E0FF18
:1029EC00E0FF1FF81FF8FFFFFFFF030000000000CF
:1029FC0000000000010202030303030404040404A6
:102A0C00040404050505050505050505050505056D
:102A1C00050505060606060606060606060606064D
:102A2C00060606060606060606060606060606063A
:102A3C00060606070707070707070707070707071D
:102A4C00070707070707070707070707070707070A
:102A5C0007070707070707070707070707070707FA
:102A6C0007070707070707070707070707070707EA
:102A7C0007070708080808080808080808080808CD
:102A8C0008080808080808080808080808080808BA
:102A9C0008080808080808080808080808080808AA
:102AAC00080808080808080808080808080808089A
:102ABC00080808080808080808080808080808088A
:102ACC00080808080808080808080808080808087A
:102ADC00080808080808080808080808080808086A
:102AEC00080808080808080808080808080808085A
:042AFC0008080800BE
:00000001FF
